:020000020000FC
:040000000C94250037
:10002C000C9418000F930FB70F93239581508823CE
:10003C0011F4915089E00F910FBF0F91189520E0AA
:10004C000FEF0DBF08E00EBF0FEF04B90AB907B9E7
:10005C0004EF0093890004E20093880000E0009311
:10006C0080000CE00093810000916F00026000930F
:10007C006F0078940E9454000E945A000E94620003
:10008C0095E082E00E946A000E947C000E9484003D
:10009C000E948C003FE72317F1F7ECCF20E019E02A
:1000AC0015B919E01BB9189539E12317E9F71AE0CE
:1000BC0015B919E01BB918953DE12317E9F71CE0B8
:1000CC0015B913E01BB9189513E21BB988B90E9436
:1000DC00940003E40BB998B90E94940031E52317FE
:1000EC0099F714E115B915E01BB9189535E52317E7
:1000FC00E9F714E615B918E01BB918953EE6231775
:10010C00E9F714EA15B918E01BB9189532E723176B
:10011C00E9F714E215B919E11BB9189560E05DE730
:0C012C0040E0415050406040E0F7089572
:00000001FF
