:020000020000FC
:040000000C9431002B
:10002C000C941D00DEFE0EFADACC9EB60C7E0F93FD
:10003C000FB70F932395493344F44395E0E0E40F55
:10004C0094910F910FBF0F9118954FE25395E0E0EB
:10005C00E50F8491F2CF20E00FEF0DBF08E00EBF4B
:10006C000FE304B90EEF0AB90FEF07B904EF0093D1
:10007C00890004E20093880000E0009380000CE00B
:10008C000093810000916F00026000936F007894E0
:10009C0020E049E3E0E0E40F949151E3E0E0E50F68
:1000AC00849114E115B91FE018B939E123171CF438
:1000BC000E94AE00FACF14E115B91BE018B93DE16E
:1000CC0023171CF40E94AE00FACF1CE115B917E0FF
:1000DC0018B931E523171CF40E94AE00FACF46E3A1
:1000EC00E0E0E40F949159E3E0E0E50F849118E12E
:1000FC0015B916E018B935E523171CF40E94AE00AB
:10010C00FACF47E3E0E0E40F949155E3E0E0E50F2C
:10011C00849114E315B915E018B93EE623171CF4C5
:10012C000E94AE00FACF14E215B915E018B932E707
:10013C0023171CF40E94AE00FACF14E115B915E098
:10014C0018B93FE723171CF40E94AE00FACFA0CFDA
:10015C0005B10C73016005B99BB90E94BC000C730E
:10016C00026005B98BB90E94BC001895D0E0C9E1BA
:0C017C00B0E0B150C040D040E0F7089562
:00000001FF
